:020000040800F2
:1000000000000220690A0008E1070008E307000871
:10001000E5070008E7070008E907000800000000FE
:10002000000000000000000000000000EB070008D6
:10003000ED07000800000000EF070008F1070008C6
:10004000B90A0008B90A0008B90A0008B90A000884
:10005000B90A0008B90A0008B90A0008B90A000874
:10006000B90A0008B90A0008B90A0008B90A000864
:10007000B90A0008B90A0008B90A0008B90A000854
:10008000B90A0008B90A0008B90A0008B90A000844
:10009000B90A0008B90A0008B90A0008B90A000834
:1000A000B90A0008B90A0008B90A0008B90A000824
:1000B000B90A0008B90A0008B90A0008B90A000814
:1000C000B90A0008B90A0008B90A0008B90A000804
:1000D000B90A0008F9070008B90A0008B90A0008B7
:1000E000B90A0008B90A0008B90A0008B90A0008E4
:1000F000B90A0008B90A0008B90A0008B90A0008D4
:10010000B90A0008B90A000809080008B90A000875
:10011000B90A0008B90A0008B90A0008B90A0008B3
:10012000B90A0008B90A000819080008B90A000845
:10013000B90A0008B90A0008B90A0008B90A000893
:10014000B90A0008B90A0008B90A0008B90A000883
:10015000B90A0008B90A000829080008B90A000805
:10016000B90A0008B90A0008B90A0008B90A000863
:10017000B90A0008B90A0008B90A0008000000001E
:08018000B90A0008B90A0008E1
:1001880010B5054C237833B9044B13B10448AFF3C9
:1001980000800123237010BD3C04002000000000F3
:1001A8009424000808B5034B1BB103490348AFF377
:1001B800008008BD000000004004002094240008CE
:1001C80053B94AB9002908BF00281CBF4FF0FF31B6
:1001D8004FF0FF3000F06CB9ADF1080C6DE904CEBA
:1001E80000F006F8DDF804E0DDE9022304B070470A
:1001F8002DE9F047089E0D4604468E46002B40F038
:1002080082808A42174646D9B2FA82F24AB1C2F1CE
:10021800200105FA02F320FA01F1974041EA030EA2
:1002280094404FEA1748230CBEFBF8FCB9B208FB10
:100238001CEE43EA0E430CFB01F098420AD9FB1866
:100248000CF1FF3580F01681984240F21381ACF131
:10025800020C3B441B1AA4B2B3FBF8F008FB1033A2
:1002680044EA034400FB01F1A14209D93C1900F119
:10027800FF3380F00181A14240F2FE8002383C4405
:10028800641A40EA0C4000211EB1D4400023C6E99C
:100298000043BDE8F08702B9FFDEB2FA82F2002A15
:1002A8004FD1CB1B4FEA174E1FFA87F80121B3FB3A
:1002B800FEFC250C0EFB1C3345EA034508FB0CF33A
:1002C800AB4207D97D190CF1FF3002D2AB4200F2E4
:1002D800E7808446ED1AA3B2B5FBFEF00EFB10557D
:1002E80043EA054408FB00F8A04507D93C1900F18A
:1002F800FF3302D2A04500F2D7801846A4EB0804C9
:1003080040EA0C40C0E78B4208D9002E00F0AF80CD
:100318000021C6E900050846BDE8F087B3FA83F175
:1003280000294BD1AB4202D3824200F2B780841A33
:1003380065EB030301209E46002EAAD0C6E9004EB5
:10034800A7E7C2F1200C01FA02F3974020FA0CF05B
:100358004FEA174E21FA0CFC1843BCFBFEF1050CC2
:100368000EFB11CC1FFA87F845EA0C4501FB08F390
:10037800AB4204FA02F409D97D1901F1FF3C80F07F
:100388008B80AB4240F2888002393D44EB1A85B23B
:10039800B3FBFEF00EFB103345EA034500FB08F300
:1003A800AB4207D97D1900F1FF3C71D2AB426FD93E
:1003B80002383D44EB1A40EA014178E7C1F1200CCC
:1003C8008B4022FA0CF71F4320FA0CF405FA01F3CC
:1003D8004FEA174E25FA0CF51C43230CB5FBFEF922
:1003E8001FFA87F80EFB195543EA054509FB08FA79
:1003F800AA4502FA01F200FA01F308D97D1909F1B8
:10040800FF3047D2AA4545D9A9F102093D44A5EBD9
:100418000A05A4B2B5FBFEF00EFB105544EA0544EC
:1004280000FB08F8A04507D93C1900F1FF352DD28B
:10043800A0452BD902383C4440EA0940A4EB080403
:10044800A0FB02894C45C6464D4619D316D05EB16D
:10045800B3EB0E0264EB050404FA0CFCCA404CEA48
:100468000202CC40C6E900240021BDE8F0873146ED
:1004780030460EE7AC46EDE6184601E74345E6D2BE
:10048800B8EB020E69EB07050138E0E72846D3E729
:1004980060468FE78146BAE7614677E708464BE74B
:1004A800ACF1020C3D4415E702383C4426E700BF96
:1004B800704700BF10B582B0002401940D4B1A6B31
:1004C80042F480021A631B6B03F480030193019BBF
:1004D800224621463A2000F065FB3A2000F096FBC0
:1004E80022462146462000F05DFB462000F08EFBA8
:1004F80002B010BD0038024082B0002100910B4BC1
:100508001A6B42F080021A631A6B02F080020092A2
:10051800009A01911A6B42F001021A631B6B03F0F7
:1005280001030193019B02B0704700BF00380240ED
:1005380038B502682A4B9A4200D038BD294B1B783F
:10054800022B1DD0032B34D0012BF6D1264B1C686F
:10055800264D0021284601F09CF904EB4404244B65
:1005680043F824002B681A6A22F00A021A621A6AEF
:1005780042F002021A621B4A137801331370DCE757
:10058800194B1C68194D0021284601F082F904EB2B
:100598004404174B03EB840460602B681A6A22F04A
:1005A8000A021A621A6A1A620E4A13780133137021
:1005B800C3E70D4B1C680D4D0021284601F069F971
:1005C80004EB44040A4B03EB8404A0600021284692
:1005D80001F099FB034A137801331370ADE700BFAC
:1005E800000C0040D0040020280500207C050020D5
:1005F8005804002072B6FEE700B595B030220021FD
:1006080008A801F083FE002303930493059306933F
:10061800079301931F4A116C41F080511164126CC9
:1006280002F080520192019A02931B4A116841F428
:1006380080411160126802F480420292029A0222FA
:10064800089201210B9110210C910E920F9308230F
:100658001093A823119312920423139308A800F06F
:10066800AFFD98B90F230393022304930023059346
:100678004FF4A05306934FF480530793052103A822
:1006880000F0E4FF20B915B05DF804FBFFF7B2FFF6
:10069800FFF7B0FF003802400070004010B500F0CE
:1006A8002FFAFFF7A9FFFFF727FFFFF703FF00F077
:1006B800C7F800F03DF959E001322E4B1A702E4868
:1006C80003681A6A22F00A021A621A6A1A62002178
:1006D80001F0E5FA294B1B68092B2EDC254A127814
:1006E800002AE9D0042AF5D1254A03EB4301880002
:1006F80011184C681258A21A224840F82320896819
:10070800091B214840F823100A44204941F82320B6
:100718001F49B1FBF2F21F4941F82320164A12681B
:10072800116A21F00A011162116A1162114A00214D
:1007380011700133114A1360CCE70023164A136085
:10074800092B08DC134A52F8230013490A680244AB
:100758000A600133F4E7104A13681049A1FB031338
:10076800DB0813604FF47A7000F0F6F9034B0022AF
:100778001A60AFE7D00400207C050020280500207F
:1007880058040020000500202C05002054050020F6
:1007980000BD0105D4040020FC040020CDCCCCCC45
:1007A80082B0002100910B4B5A6C42F480425A648B
:1007B8005A6C02F480420092009A01911A6C42F03D
:1007C80080521A641B6C03F080530193019B02B0A2
:1007D800704700BF00380240FEE7FEE7FEE7FEE78D
:1007E800FEE770477047704708B500F0A3F908BDE9
:1007F80008B5024801F0CAFC08BD00BF7C0600200D
:1008080008B5024801F062F808BD00BF7C05002069
:1008180008B5024800F000FB08BD00BFBC05002079
:1008280008B5024800F0F8FA08BD00BF1C06002011
:10083800024B4FF000629A60704700BF00ED00E085
:1008480000B587B0002304930593009301930293A6
:1008580003931648164A0260436083604FF0FF32E4
:10086800C2600361836101F053F9B0B900230493B6
:10087800059304A90D4801F07FFA88B90022009277
:10088800012301930292082303936946074801F064
:1008980095F940B907B05DF804FBFFF7ABFEE5E753
:1008A800FFF7A8FEEAE7FFF7A5FEF3E77C050020BF
:1008B800000C004010B588B00023039304930593FF
:1008C800069307930268184B9A4201D008B010BDEE
:1008D8000024019403F50B331A6C42F008021A64E1
:1008E8001A6C02F008020192019A02941A6B42F003
:1008F80001021A631B6B03F001030293029B01239D
:1009080003930223049305930694079303A90748C6
:1009180000F070FB22462146322000F043F93220D5
:1009280000F074F9D2E700BF000C0040000002405C
:1009380008B50A480A4B03604FF4E13343600023CB
:100948008360C36003610C2242618361C36101F06B
:100958008FFB00B908BDFFF74DFEFBE77C060020C2
:100968000010014030B589B0002303930493059328
:1009780006930793026803F1804303F588339A428C
:1009880001D009B030BD04460025019503F5943324
:100998005A6C42F010025A645A6C02F0100201922A
:1009A800019A02951A6B42F001021A631B6B03F05D
:1009B80001030293029B4FF4C06303930223049341
:1009C8000595032306930723079303A91F4800F0FF
:1009D80011FB1F481F4B03604FF0006343608560A5
:1009E800C5604FF48063036145618561C561056237
:1009F800456200F097F918BB154B63639C63164872
:100A0800164B03604FF0006343604023836000236C
:100A1800C3604FF48062026143618361C361036212
:100A2800436200F07FF970B90B4B23639C6300228B
:100A38001146252000F0B6F8252000F0E7F8A0E7D9
:100A4800FFF7D8FDD8E7FFF7D5FDEDE70000024036
:100A5800BC050020406402401C060020B864024027
:100A6800DFF834D0002103E00C4B5B5843500431CD
:100A78000B480C4B42189A42F6D30B4A02E000236B
:100A880042F8043B094B9A42F9D3FFF7D1FE01F033
:100A980019FCFFF703FE704700000220E424000859
:100AA800000000203C0400203C040020E406002054
:100AB800FEE7000010B504460E4B18784FF47A7321
:100AC800B3FBF0F30C4A1068B0FBF3F000F0ACF89D
:100AD80068B90F2C01D901200AE0002221464FF005
:100AE800FF3000F05FF8054B1C60002000E001209B
:100AF80010BD00BF040000200000002008000020F6
:100B080008B50B4B1A6842F400721A601A6842F46E
:100B180080621A601A6842F480721A60032000F03A
:100B28002FF80020FFF7C6FFFFF73AFE002008BDA8
:100B3800003C0240034A1168034B1B780B441360C6
:100B4800704700BFBC06002004000020014B186855
:100B5800704700BFBC06002038B50446FFF7F6FF13
:100B68000546B4F1FF3F02D0044B1B781C44FFF745
:100B7800EDFF401BA042FAD338BD00BF040000209F
:100B8800074AD36823F4E0631B041B0C000200F43B
:100B9800E060034343F0BF6343F40033D36070471E
:100BA80000ED00E030B4174BDB68C3F30223C3F158
:100BB8000704042C28BF04241D1D062D18D9033B47
:100BC8004FF0FF3505FA04F421EA0401994005FACB
:100BD80003F322EA0303194300280BDB0901C9B216
:100BE80000F1604000F5614080F8001330BC7047A8
:100BF8000023E5E700F00F000901C9B2024B1954C0
:100C0800F4E700BF00ED00E014ED00E0002807DB8A
:100C180000F01F02400901239340024A42F82030A5
:100C2800704700BF00E100E00138B0F1807F0AD2D0
:100C3800064B5860064AF02182F82310002098607D
:100C480007221A6070470120704700BF10E000E0DB
:100C580000ED00E010B40368D9B210390B4AA2FBCA
:100C6800014212090A4CA25CC2655F2908D923F423
:100C78007F7323F0030304338365806D10BC7047D2
:100C880023F47F7323F003038365F6E7ABAAAAAACC
:100C9800C4240008836A826992B9012B0AD0022B06
:100CA80002D00BB100207047C36A13F0807F28D1AF
:100CB80000207047C36AB3F1C07F24D0002070477A
:100CC800B2F5005F09D0022B25D9032B25D1C36AC1
:100CD80013F0807F23D100207047032B03D8DFE86F
:100CE80003F01404140A00207047C36A13F0807FCD
:100CF8000DD100207047C36AB3F1C07F09D000202E
:100D0800704701207047012070470120704701207B
:100D1800704701207047012070470020704701206C
:100D28007047000070B50446FFF710FF002C5BD039
:100D38000546002384F83430022384F835302268CD
:100D4800136823F00103136023681A6812F0010F77
:100D58000AD0FFF7FBFE431B052BF5D9202363655B
:100D6800032084F8350070BD1A6820481040616877
:100D7800A2680A43E1680A4321690A4361690A4390
:100D8800A1690A43E1690A43216A0A430243616A85
:100D980004291ED01A602668756925F00705636A5C
:100DA8001D43042B07D1A36A1D43E36A1BB12046E8
:100DB800FFF770FF90B975612046FFF74BFFE26DB2
:100DC8003F239340836000206065012384F8353019
:100DD800C9E7E16A206B01430A43DBE74023636507
:100DE800012084F83500BEE70120BCE73F8010F001
:100DF80090F83530DBB2022B03D080234365012005
:100E08007047052380F835300268136823F0010322
:100E18001360002070470000F0B583B0044600233B
:100E28000193724B1D68724BA3FB0535AD0A876DA4
:100E38003E68C26D08239340334210D003681A6895
:100E480012F0040F0BD01A6822F004021A60C26D67
:100E580008239340BB60436D43F001034365E26D93
:100E680001239340334209D02268526912F0800F5F
:100E780004D0BB60636D43F002036365E26D042335
:100E88009340334209D02268126812F0020F04D04E
:100E9800BB60636D43F004036365E26D1023934008
:100EA800334224D02268126812F0080F1FD0BB60AA
:100EB80023681A6812F4802F0DD01B6813F4002FD2
:100EC80004D1236C9BB12046984710E0A36C73B102
:100ED800204698470BE01A6812F4807F03D11A68FD
:100EE80022F008021A60236C0BB120469847E26D85
:100EF80020239340334255D02268126812F0100F15
:100F080050D0BB6094F83530DBB2052B0ED0236887
:100F18001A6812F4802F33D01B6813F4002F2AD1DB
:100F2800636C002B3ED0204698473BE0226813684C
:100F380023F0160313602268536923F0800353617A
:100F4800236CA3B12268136823F008031360E26DD1
:100F58003F239340BB60002384F83430012384F896
:100F68003530236D002B3FD0204698473CE0A36CDA
:100F7800002BE7D1EBE7E36BA3B12046984711E0DC
:100F88001A6812F4807F09D11A6822F010021A60D8
:100F9800002384F83430012384F83530E36B0BB137
:100FA80020469847636DFBB1636D13F0010F17D0AE
:100FB800052384F835302268136823F00103136091
:100FC800019B01330193AB4204D823681B6813F0DB
:100FD800010FF5D1002384F83430012384F835302B
:100FE800E36C0BB12046984703B0F0BD0000002029
:100FF800B5814E1B00230F2B00F2D980F0B583B0CA
:1010080039E0072200E00022B2403A430234684E39
:1010180046F82420674A1468EA4324EA05064F681C
:1010280017F4803F01D045EA0406624C26606468E4
:1010380002EA04064F6817F4003F01D045EA0406A7
:101048005C4C6660A46802EA04064F6817F4801FC7
:1010580001D045EA0406574CA660E46822404E6871
:1010680016F4001F01D045EA0402524CE260013335
:101078000F2B00F29A8001229A400C6804EA0205BC
:1010880032EA0404F3D14C68661E012E03D9112CF0
:1010980001D0122C12D186685F000324BC4026EAD6
:1010A8000406CC68BC4034438460466826EA0206DD
:1010B8004C68C4F300129A4032434260C7685E002D
:1010C8000324B440E24327EA04078C68B4403C4355
:1010D800C4604C68022C01D0122C13D1DF080837E9
:1010E80050F827E003F007044FEA840C0F2404FAB1
:1010F8000CF42EEA040E0C6904FA0CF444EA0E040B
:1011080040F82740046814404A6802F00302B240DD
:10111800224302604A6812F0805FA8D00022019240
:10112800254A546C44F480445464526C02F480425E
:101138000192019A9C08A61C1D4A52F8267003F0D9
:10114800030296000F22B24027EA02071B4A904288
:101158003FF459AF02F5806290421AD002F58062DE
:10116800904218D002F58062904216D002F5806253
:10117800904214D002F58062904212D002F580624B
:10118800904210D002F5806290423FF43AAF0822B4
:101198003AE7012238E7022236E7032234E704223D
:1011A80032E7052230E706222EE703B0F0BD70478C
:1011B80000380140003C0140003802400000024075
:1011C800002800F0D98170B582B00446036813F096
:1011D800010F3BD0A64B9B6803F00C03042B2CD0CB
:1011E800A34B9B6803F00C03082B21D06368B3F56D
:1011F800803F4FD0B3F5A02F52D09D4B1A6822F4F0
:1012080080321A601A6822F480221A606368002B00
:1012180050D0FFF79BFC0546954B1B6813F4003F25
:1012280014D1FFF793FC401B6428F5D90320AAE1E9
:101238008F4B5B6813F4800FD8D08D4B1B6813F469
:10124800003F03D06368002B00F09881236813F0F7
:10125800020F54D0864B9B6813F00C0F3ED0844B82
:101268009B6803F00C03082B33D0E368002B67D08E
:10127800804B01221A60FFF769FC05467C4B1B680E
:1012880013F0020F53D1FFF761FC401B0228F5D978
:10129800032078E1764A136843F480331360B5E796
:1012A800734B1A6842F480221A601A6842F480323A
:1012B8001A60ABE7FFF74AFC05466D4B1B6813F451
:1012C800003FC3D0FFF742FC401B6428F5D9032038
:1012D80059E1674B5B6813F4800FC6D1644B1B68F8
:1012E80013F0020F03D0E368012B40F04981604AF4
:1012F800136823F0F803216943EAC10313602368E4
:1013080013F0080F40D0636963B35B4B01221A6086
:10131800FFF71CFC0546564B5B6F13F0020F33D1E9
:10132800FFF714FC401B0228F5D903202BE1504A93
:10133800136823F0F803216943EAC1031360DEE769
:101348004C4B00221A60FFF701FC0546484B1B680E
:1013580013F0020FD3D0FFF7F9FB401B0228F5D991
:10136800032010E1444B00221A60FFF7EFFB05460B
:101378003F4B5B6F13F0020F06D0FFF7E7FB401BF4
:101388000228F5D90320FEE0236813F0040F78D073
:10139800374B1B6C13F0805F0DD100230193344B46
:1013A8001A6C42F080521A641B6C03F0805301934C
:1013B800019B012500E00025304B1B6813F4807F5A
:1013C80021D0A368012B32D0052B36D0284B1A6FB9
:1013D80022F001021A671A6F22F004021A67A36842
:1013E800002B34D0FFF7B2FB0646214B1B6F13F0DE
:1013F800020F45D1FFF7AAFB801B41F288339842C0
:10140800F3D90320BFE01D4A136843F480731360C7
:10141800FFF79CFB0646194B1B6813F4807FD0D15D
:10142800FFF794FB801B0228F5D90320ABE0104A94
:10143800136F43F001031367D1E70D4B1A6F42F0A6
:1014480004021A671A6F42F001021A67C7E7FFF72A
:101458007DFB0646064B1B6F13F0020F10D0FFF7FB
:1014680075FB801B41F288339842F3D903208AE048
:101478000038024000004742800E4742007000409A
:10148800E5B9A369002B7DD0464A926802F00C02A8
:10149800082A51D0022B17D0434B00221A60FFF7BD
:1014A80055FB04463F4B1B6813F0007F42D0FFF703
:1014B8004DFB001B0228F5D9032064E0394A136C60
:1014C80023F080531364DCE7374B00221A60FFF7E0
:1014D8003DFB0546334B1B6813F0007F06D0FFF732
:1014E80035FB401B0228F5D903204CE0E369226A4A
:1014F8001343626A43EA8213A26A5208013A43EA32
:101508000243E26A43EA0263264A5360264B0122F9
:101518001A60FFF71BFB0446224B1B6813F0007F81
:1015280006D1FFF713FB001B0228F5D903202AE098
:10153800002028E0002026E0012B26D0194B5B680C
:1015480003F48001E269914221D103F03F02216A4C
:101558008A421ED1616A47F6C0721A408A421AD17D
:1015680003F44032A16A8A4217D103F07063E26A39
:10157800934214D1002006E001207047012002E0C8
:10158800012000E0002002B070BD0120FBE701202F
:10159800F9E70120F7E70120F5E70120F3E701204B
:1015A800F1E700BF0038024060004742F8B5244B1D
:1015B8009B6803F00C03042B3DD0082B3DD1204B36
:1015C8005A6802F03F025B6813F4800F12D01C4B7C
:1015D8005968C1F3881100231A48A1FB0001FEF7DE
:1015E800EFFD174B5B68C3F3014301335B00B0FBAE
:1015F800F3F023E0124B5B68C3F388135C0100250A
:10160800E41A65F10005AE0146EA9466A701381BA5
:1016180066EB0501CC0044EA5074C500E81844F1B3
:1016280000018B0243EA90538402204619460023A6
:10163800FEF7C6FDD5E7034800E00348F8BD00BF44
:101648000038024040787D010024F400002800F0B2
:101658009B8070B50D4604464F4B1B6803F00F0383
:101668008B4208D2CBB24C4A1370136803F00F03B5
:101678008B4240F08B80236813F0020F17D013F0D1
:10168800040F04D0454A936843F4E05393602368F9
:1016980013F0080F04D0414A936843F46043936001
:1016A8003E4A936823F0F003A1680B4393602368D4
:1016B80013F0010F32D06368012B21D09A1E012A42
:1016C80025D9364A126812F0020F61D033498A6868
:1016D80022F0030213438B60FFF738FA06462F4BBC
:1016E8009B6803F00C036268B3EB820F16D0FFF718
:1016F8002DFA801B41F288339842F0D9032042E04A
:10170800264A126812F4003FE0D101203BE0234A48
:10171800126812F0007FD9D1012034E01E4B1B68FB
:1017280003F00F03AB4207D9EAB21B4B1A701B68D0
:1017380003F00F03AB422DD1236813F0040F06D03A
:10174800164A936823F4E053E1680B4393602368D7
:1017580013F0080F07D0114A936823F460432169F6
:1017680043EAC1039360FFF721FF0C4B9B68C3F367
:1017780003130B4AD35CD8400A4B18600A4B18680D
:10178800FFF798F9002070BD012070470120FAE7A3
:101798000120F8E70120F6E7003C0240003802404B
:1017A800AC2400080000002008000020014B186845
:1017B800704700BF0000002008B5FFF7F7FF044B93
:1017C8009B68C3F38223034AD35CD84008BD00BF9B
:1017D80000380240BC24000808B5FFF7E7FF044BB7
:1017E8009B68C3F34233034AD35CD84008BD00BFAB
:1017F80000380240BC24000830B4056A25F0100502
:1018080005628469056A24F4407444EA022424F4D5
:1018180070441B039BB2234325F0A005090101F086
:10182800A00129438361016230BC704730B4056A66
:1018380025F480750562C469056A24F0030414431D
:1018480024F0F0041B01DBB2234325F420650902D0
:1018580001F420612943C361016230BC704730B490
:10186800056A25F480550562C469056A24F4407444
:1018780044EA022424F470441B039BB2234325F456
:101888002045090301F420412943C361016230BCAA
:1018980070470C2914D8DFE801F0071313130A1353
:1018A80013130D13131310000368586B7047036864
:1018B800986B70470368D86B70470368186C70475B
:1018C80000207047704770477047704710B504464E
:1018D80003681A6912F0020F11D0DA6812F0020FC9
:1018E8000DD06FF002021A610123037703689B6928
:1018F80013F0030F70D0FEF71BFE00232377236835
:101908001A6912F0040F12D0DA6812F0040F0ED020
:101918006FF004021A610223237723689B6913F48A
:10192800407F5FD02046FEF703FE0023237723681D
:101938001A6912F0080F12D0DA6812F0080F0ED0E8
:101948006FF008021A61042323772368DB6913F018
:10195800030F4ED02046FEF7EBFD002323772368C4
:101968001A6912F0100F12D0DA6812F0100F0ED0A8
:101978006FF010021A61082323772368DB6913F4D8
:10198800407F3DD02046FEF7D3FD00232377236810
:101998001A6912F0010F03D0DA6812F0010F36D17C
:1019A80023681A6912F0800F03D0DA6812F0800FEA
:1019B80034D123681A6912F0400F03D0DA6812F0A4
:1019C800400F32D123681A6912F0200F03D0DA6869
:1019D80012F0200F30D110BDFFF775FF2046FFF73A
:1019E80073FF8AE72046FFF76EFF2046FFF76CFF7C
:1019F8009BE72046FFF767FF2046FFF765FFACE748
:101A08002046FFF760FF2046FFF75EFFBDE76FF057
:101A180001021A612046FFF755FFC1E76FF0800207
:101A28001A61204600F0EDF9C3E76FF040021A6131
:101A38002046FFF74AFFC5E76FF020021A612046EB
:101A480000F0DEF9C7E700000368304A904212D080
:101A5800B0F1804F0FD0A2F57C4290420BD002F536
:101A68008062904207D002F58062904203D002F56E
:101A78007842904203D123F070034A681343234A03
:101A880090422AD0B0F1804F27D0A2F57C429042F4
:101A980023D002F5806290421FD002F58062904206
:101AA8001BD002F57842904217D002F5705290424E
:101AB80013D002F5806290420FD002F58062904206
:101AC8000BD0A2F59832904207D002F5806290427E
:101AD80003D002F58062904203D123F44073CA68B0
:101AE800134323F080034A69134303608B68C3627E
:101AF8000B688362054B984203D003F580639842D4
:101B080001D10B6903630123436170470000014061
:101B1800B0B110B5044690F83D3063B1022384F8A3
:101B28003D30214651F8040BFFF78EFF012384F85E
:101B38003D30002010BD80F83C30FEF7BBFEEDE7DD
:101B48000120704770B4046A24F0010404628469B7
:101B5800066A194DA8421DD0B0F1804F1AD0A5F5DC
:101B68007C45A84216D005F58065A84212D005F537
:101B78008065A8420ED005F57845A8420AD005F53B
:101B88007055A84206D0A5F59435A84202D044F075
:101B9800010202E024F00304224322F0F0021B01B8
:101BA800DBB2134326F00A0201F00A0111438361F4
:101BB800016270BC704700BF0000014038B590F862
:101BC8003C30012B58D004460D46012380F83C30A8
:101BD800022380F83D30DAB1042A2AD0082A3AD004
:101BE800CB684A6809680068FFF739FE2268D3693C
:101BF80023F44063D3612268D369A96843EA0123C7
:101C0800D361012384F83D30002084F83C0038BDBE
:101C1800CB684A6809680068FFF794FF22689369EF
:101C280023F00C03936122689369A9680B439361BD
:101C3800E7E7CB684A6809680068FFF7DDFD2268B6
:101C4800936923F44063936122689369A96843EA1E
:101C580001239361D5E7CB684A6809680068FFF7F4
:101C6800E5FD2268D36923F00C03D3612268D369A8
:101C7800A9680B43D361C4E70220C8E710B401F098
:101C88001F01012303FA01F4036A23EA0403036230
:101C9800036A02FA01F10B43036210BC704710B5E6
:101CA80004460C290DD8DFE801F0070C0C0C1C0CBD
:101CB8000C0C220C0C0C28000268D36843F00203B9
:101CC800D36001222068FFF7D9FF2268936803F0E8
:101CD8000703062B03D0136843F0010313600020A9
:101CE80010BD0268D36843F00403D360E9E70268D3
:101CF800D36843F00803D360E3E70268D36843F08E
:101D08001003D360DDE710B504460C290DD8DFE8D1
:101D180001F0070C0C0C210C0C0C270C0C0C2D00E2
:101D28000268D36823F00203D36000222068FFF71B
:101D3800A5FF2368196A41F21112114208D1196AE4
:101D480040F24442114203D11A6822F001021A609B
:101D5800002010BD0268D36823F00403D360E4E7D1
:101D68000268D36823F00803D360DEE70268D3680B
:101D780023F01003D360D8E790F83C30012B3BD018
:101D880030B4012380F83C30022380F83D300368EA
:101D98005C689D6824F070040A6822435A600368EE
:101DA800164A93421AD0B3F1804F17D0A2F57C425D
:101DB800934213D002F5806293420FD002F58062FD
:101DC80093420BD002F57842934207D002F5705245
:101DD800934203D0A2F59432934204D125F08005B2
:101DE8004A6815439D60012380F83D30002380F840
:101DF8003C30184630BC7047022070470000014054
:101E0800704770470268D36823F49073D360026800
:101E1800536923F001035361202380F83A30704757
:101E280090F83930DBB2212B01D00220704783684B
:101E3800B3F5805F17D0036A5A1C02621A780368E8
:101E48005A60C38C9BB2013B9BB2C3844BB90268F6
:101E5800D36823F08003D3600268D36843F040035B
:101E6800D36000207047036A1B880268C3F3080325
:101E7800536003691BB9036A02330362E1E7036A2B
:101E880001330362DDE7000070B504460268136998
:101E980023F44053C1680B431361836802691343F9
:101EA80042691343C2691A430168CB6823F4164395
:101EB80023F00C031343CB600268536923F4407387
:101EC80081690B435361C369B3F5004F36D003688A
:101ED800654A934200F09A8002F58062934200F0CE
:101EE8009580FFF769FC0026051846EB06012D18BA
:101EF80046EB0101CB0043EA5573EA001546194643
:101F080063689A009B0F281846EB0101FEF758F901
:101F1800564DA5FB00325109642303FB11031B0135
:101F28003233A5FB03235B0903F0F00202EB011235
:101F380003F00F03216813448B6093E003684A4A57
:101F4800934233D002F5806293422FD0FFF734FCDE
:101F58000026051846EB06012D1846EB0101CB00BB
:101F680043EA5573EA0015461946626833469218E3
:101F780046EB0303281846EB0101FEF721F93B4D18
:101F8800A5FB00325109642303FB1103DB00323344
:101F9800A5FB03235B095A0002F4F87202EB011255
:101FA80003F00703216813448B605BE0FFF714FC20
:101FB8000026051846EB06012D1846EB0101CB005B
:101FC80043EA5573EA001546194662683346921883
:101FD80046EB0303281846EB0101FEF7F1F8234D01
:101FE800A5FB00325109642303FB1103DB003233E4
:101FF800A5FB03235B095A0002F4F87202EB0112F5
:1020080003F00703216813448B602BE0FFF7E4FB20
:102018000026051846EB06012D1846EB0101CB00FA
:1020280043EA5573EA001546194663689A009B0F00
:10203800281846EB0101FEF7C3F80C4DA5FB00324A
:102048005109642303FB11031B013233A5FB03234E
:102058005B0903F0F00202EB011203F00F032168A1
:1020680013448B6070BD00BF001001401F85EB5109
:1020780058B310B5044690F839300BB3242384F8CC
:1020880039302268D36823F40053D3602046FFF721
:10209800FBFE2268136923F4904313612268536995
:1020A80023F02A0353612268D36843F40053D360B2
:1020B8000020E063202384F8393084F83A3010BDDA
:1020C80080F83830FEF74EFCD8E70120704770479B
:1020D80008B50168CA6822F04002CA60202280F868
:1020E8003920FFF7F4FF002008BD704708B590F8C5
:1020F8003A30DBB2222B46D18368B3F5805F0FD02C
:1021080003690BBB03685A68836A591C81621A7099
:10211800C38D9BB2013B9BB2C385F3B1002008BDC0
:10212800826A036943B903685B68C3F308031380D1
:10213800836A02338362EBE703685B68DBB2138070
:10214800836A01338362E3E703685B68826A511C30
:10215800816203F07F031370DAE70268D36823F023
:102168002003D3600268D36823F48073D3600268C5
:10217800536923F001035361202380F83A30FFF7B5
:10218800B4FF0020CBE70220C9E7704710B504462A
:1021980002681368D168526913F00F0005D113F073
:1021A800200F02D011F0200F13D128B112F0010234
:1021B80013D111F4907F10D113F0800F02D011F0D9
:1021C800800F6CD113F0400F02D011F0400F6AD18C
:1021D80010BD2046FFF78AFFFAE713F0010F06D07B
:1021E80011F4807F03D0E06B40F00100E06313F04E
:1021F800040F04D01AB1E06B40F00200E06313F062
:10220800020F04D01AB1E06B40F00400E06313F051
:10221800080F07D011F0200F00D11AB1E26B42F07D
:102228000802E263E26B002AD2D013F0200F02D03A
:1022380011F0200F21D123685B6903F04003E26BA2
:1022480012F0080F00D123B32046FFF7DBFD236807
:102258005A6912F0400F18D05A6922F040025A61A8
:10226800636B73B1124A1A65606BFEF7C1FD0028F3
:10227800AED0606B036D9847AAE72046FFF736FF9C
:10228800D9E72046FFF781FFA2E72046FFF77DFF49
:102298009EE72046FFF779FF0023E36398E720468F
:1022A800FFF7BEFD94E72046FFF712FF90E700BF57
:1022B800BD22000808B5806B0023C385C384FFF7DF
:1022C80064FF08BD70B50D4E0D4D761BB61006D0D7
:1022D800002455F8043B01349847A642F9D1094E29
:1022E800094D761B00F0D2F8B61006D0002455F838
:1022F800043B01349847A642F9D170BDD8240008A0
:10230800D8240008E0240008D8240008F0B4860780
:1023180046D0541E002A3CD0CAB2034601E0013C14
:1023280037D303F8012B9D07F9D1032C2AD9CDB255
:1023380045EA05250F2C45EA054534D9A4F11002D4
:1023480022F00F0C03F120071609674403F110026D
:1023580042E9045542E902551032BA42F8D1721CDA
:1023680014F00C0F03EB021204F00F0613D0331F06
:1023780023F003030433134442F8045B9342FBD174
:1023880006F003042CB1CAB21C4403F8012B9C428A
:10239800FBD1F0BC704734461346002CF3D1F8E764
:1023A80014460346C1E71A462646E0E7024B13B136
:1023B800024800F005B8704700000000D523000867
:1023C800002301461A46184600F01AB838B5084BDB
:1023D800084D5B1B9C1007D0043B1D44013C55F87D
:1023E80004399847002CF9D1BDE8384000F054B8BA
:1023F800E4240008E0240008704700BF704700BFCD
:102408002DE9F047DFF880A00646DAF80000984684
:102418000F469146FFF7F0FF1A4B1B68D3F8484167
:1024280024B365681F2D26DC5EB9AB1C0135DAF8CC
:102438000000656044F82370FFF7E0FF0020BDE866
:10244800F08704EB85030121C3F88890D4F888212C
:10245800A9400A43022EC4F88821C3F80881E4D1B0
:10246800D4F88C311943C4F88C11DEE703F5A6744F
:10247800C3F84841D5E7DAF80000FFF7BFFF4FF08F
:10248800FF30DCE7CC24000838040020F8B500BF92
:10249800F8BC08BC9E467047F8B500BFF8BC08BC3D
:0424A8009E46704795
:1024AC0000000000000000000102030406070809F8
:1024BC0000000000010203040006101600061016AE
:0424CC0010000020DC
:0824D00028DDFF7F0100000080
:0824D800B5230008AD01000866
:0424E0008901000866
:1024E4000024F400010000001000000000000000BF
:1024F40000000000FC02002064030020CC03002044
:1025040000000000000000000000000000000000C7
:1025140000000000000000000000000000000000B7
:1025240000000000000000000000000000000000A7
:102534000000000000000000000000000000000097
:102544000000000000000000000000000000000087
:102554000000000000000000000000000000000077
:102564000000000000000000000000000000000067
:102574000000000000000000000000000000000057
:102584000000000000000000000000000000000047
:102594000000000000000000010000000000000036
:1025A4000E33CDAB34126DE6ECDE05000B000000FB
:1025B4000000000000000000000000000000000017
:1025C4000000000000000000000000000000000007
:1025D40000000000000000000000000000000000F7
:1025E40000000000000000000000000000000000E7
:0C2914000000000000000000C0060020D1
:0400000508000A697C
:00000001FF
